S01700004763634170706C69636174696F6E312E737265635B
S11300000C9434000C943E000C943E000C943E007E
S11300100C943E000C943E000C943E000C943E0064
S11300200C943E000C943E000C943E000C943E0054
S11300300C943E000C943E000C943E000C943E0044
S11300400C943E000C943E000C943E000C943E0034
S11300500C943E000C943E000C943E000C943E0024
S11300600C943E000C943E0011241FBECFEFD8E048
S1130070DEBFCDBF0E9440000C947D000C940000B4
S11300808FEF8AB984B98FE19EE40197F1F700C03C
S1130090000029982A988CE08BB92A9AEFECF7E0B3
S11300A03197F1F700C000002A988FEC97E0019790
S11300B0F1F700C0000081E08BB92A9AEFECF7E079
S11300C03197F1F700C000002A988FEC97E0019770
S11300D0F1F700C0000083E3299A8BB92A9AEFEC68
S11300E0F7E03197F1F700C000002A98EFECF7E051
S11100F03197F1F700C00000EFCFF894FFCF76
S9030000FC
