:100000000C9434000C9449000C9449000C94490061
:100010000C9449000C9449000C9449000C9449003C
:100020000C9449000C9449000C9449000C9449002C
:100030000C9449000C9449000C9449000C9449001C
:100040000C9449000C9449000C9449000C9449000C
:100050000C9449000C9449000C9449000C944900FC
:100060000C9449000C94490011241FBECFEFD8E036
:10007000DEBFCDBF11E0A0E0B1E0EEE9F1E002C0EB
:1000800005900D92AE30B107D9F70E94AB000C94E9
:10009000CD000C9400002A9A87EC90E00197F1F7CC
:1000A00000C000002A9887EC90E00197F1F700C0AB
:1000B000000008950F931F93CF93DF93299AFC01BB
:1000C00001900020E9F73197E81BF90B1E161F0677
:1000D0005CF4EC018C010E0F1F1F99919BB90E94DB
:1000E0004B00C017D107C9F7DF91CF911F910F9136
:1000F0000895299881E08BB90E944B0008958FEFF5
:100100008AB984B98FE19EE40197F1F700C000003D
:1001100029982A9887EC90E00197F1F700C0000039
:100120008CE38BB90E944B008CE08BB90E944B0092
:100130000E947900089529988130910529F460582A
:100140006BB90E944B000895029721F460546BB97B
:100150000E944B0008950E947F0060E070E081E003
:1001600090E00E949B0080E091E00E945A0068E0CD
:1001700070E082E090E00E949B0086E091E00E94A7
:100180005A002FEF80E792E0215080409040E1F745
:0E01900000C000000E947900E0CFF894FFCF7D
:0E019E0048656C6C6F00737563636573730066
:00000001FF
